:020000040000fa
:080000000002040000000000f2
:020000040000fa
:040008009003000061
:020000040000fa
:04000c00d802000016
:020000040000fa
:040010001a030000cf
:020000040000fa
:04001400f8020000ee
:020000040000fa
:040018003a030000a7
:020000040000fa
:04001c00900300004d
:020000040000fa
:040020009003000049
:020000040000fa
:040024009003000045
:020000040000fa
:040028009003000041
:020000040000fa
:04002c00900300003d
:020000040000fa
:040030009003000039
:020000040000fa
:040034005a0300006b
:020000040000fa
:040038009003000031
:020000040000fa
:04003c00900300002d
:020000040000fa
:040040009003000029
:020000040000fa
:040044009003000025
:020000040000fa
:040048009003000021
:020000040000fa
:04004c00900300001d
:020000040000fa
:040050009003000019
:020000040000fa
:040054009003000015
:020000040000fa
:040058009003000011
:020000040000fa
:04005c00900300000d
:020000040000fa
:040060009003000009
:020000040000fa
:040064009003000005
:020000040000fa
:040068009003000001
:020000040000fa
:04006c0090030000fd
:020000040000fa
:0400700090030000f9
:020000040000fa
:0400740090030000f5
:020000040000fa
:0400780090030000f1
:020000040000fa
:04007c0090030000ed
:020000040000fa
:0400800090030000e9
:020000040000fa
:0400840090030000e5
:020000040000fa
:0400880090030000e1
:020000040000fa
:04008c0090030000dd
:020000040000fa
:0400900090030000d9
:020000040000fa
:0400940090030000d5
:020000040000fa
:0400980090030000d1
:020000040000fa
:04009c0090030000cd
:020000040000fa
:0400a00090030000c9
:020000040000fa
:0400a40090030000c5
:020000040000fa
:0400a80090030000c1
:020000040000fa
:0400ac0090030000bd
:020000040000fa
:0400b00090030000b9
:020000040000fa
:0400b40090030000b5
:020000040000fa
:0400b80090030000b1
:020000040000fa
:0400bc0090030000ad
:020000040000fa
:0400c00090030000a9
:020000040000fa
:0400c40090030000a5
:020000040000fa
:0400c80090030000a1
:020000040000fa
:0400cc00900300009d
:020000040000fa
:0400d0009003000099
:020000040000fa
:0400d4009003000095
:020000040000fa
:0400d8009003000091
:020000040000fa
:0400dc00900300008d
:020000040000fa
:0400e0009003000089
:020000040000fa
:0400e4009003000085
:020000040000fa
:0400e8009003000081
:020000040000fa
:0400ec00900300007d
:020000040000fa
:0400f0009003000079
:020000040000fa
:0400f4009003000075
:020000040000fa
:0400f8009003000071
:020000040000fa
:0400fc00900300006d
:020000040000fa
:040100009003000068
:020000040000fa
:040104009003000064
:020000040000fa
:040108009003000060
:020000040000fa
:04010c00900300005c
:020000040000fa
:040110009003000058
:020000040000fa
:040114009003000054
:020000040000fa
:040118009003000050
:020000040000fa
:04011c00900300004c
:020000040000fa
:040120009003000048
:020000040000fa
:040124009003000044
:020000040000fa
:040128009003000040
:020000040000fa
:04012c00900300003c
:020000040000fa
:040130009003000038
:020000040000fa
:040134009003000034
:020000040000fa
:040138009003000030
:020000040000fa
:04013c00900300002c
:020000040000fa
:040140009003000028
:020000040000fa
:040144009003000024
:020000040000fa
:040148009003000020
:020000040000fa
:04020800900300005f
:020000040000fa
:04020c00d802000014
:020000040000fa
:040210001a030000cd
:020000040000fa
:04021400f8020000ec
:020000040000fa
:040218003a030000a5
:020000040000fa
:04021c00900300004b
:020000040000fa
:040220009003000047
:020000040000fa
:040224009003000043
:020000040000fa
:04022800900300003f
:020000040000fa
:04022c00900300003b
:020000040000fa
:040230009003000037
:020000040000fa
:040234005a03000069
:020000040000fa
:04023800900300002f
:020000040000fa
:04023c00900300002b
:020000040000fa
:040240009003000027
:020000040000fa
:040244009003000023
:020000040000fa
:04024800900300001f
:020000040000fa
:04024c00900300001b
:020000040000fa
:040250009003000017
:020000040000fa
:040254009003000013
:020000040000fa
:04025800900300000f
:020000040000fa
:04025c00900300000b
:020000040000fa
:040260009003000007
:020000040000fa
:040264009003000003
:020000040000fa
:0402680090030000ff
:020000040000fa
:04026c0090030000fb
:020000040000fa
:0402700090030000f7
:020000040000fa
:0402740090030000f3
:020000040000fa
:0402780090030000ef
:020000040000fa
:04027c0090030000eb
:020000040000fa
:0402800090030000e7
:020000040000fa
:0402840090030000e3
:020000040000fa
:0402880090030000df
:020000040000fa
:04028c0090030000db
:020000040000fa
:0402900090030000d7
:020000040000fa
:0402940090030000d3
:020000040000fa
:0402980090030000cf
:020000040000fa
:04029c0090030000cb
:020000040000fa
:0402a00090030000c7
:020000040000fa
:0402a40090030000c3
:020000040000fa
:0402a80090030000bf
:020000040000fa
:0402ac0090030000bb
:020000040000fa
:0402b00090030000b7
:020000040000fa
:0402b40090030000b3
:020000040000fa
:0402b80090030000af
:020000040000fa
:0402bc0090030000ab
:020000040000fa
:0402c00090030000a7
:020000040000fa
:0402c40090030000a3
:020000040000fa
:0402c800900300009f
:020000040000fa
:0402cc00900300009b
:020000040000fa
:0402d0009003000097
:020000040000fa
:0402d4009003000093
:020000040000fa
:0402d800900300008f
:020000040000fa
:0402dc00900300008b
:020000040000fa
:0402e0009003000087
:020000040000fa
:0402e4009003000083
:020000040000fa
:0402e800900300007f
:020000040000fa
:0402ec00900300007b
:020000040000fa
:0402f0009003000077
:020000040000fa
:0402f4009003000073
:020000040000fa
:0402f800900300006f
:020000040000fa
:0402fc00900300006b
:020000040000fa
:040300009003000066
:020000040000fa
:040304009003000062
:020000040000fa
:04030800900300005e
:020000040000fa
:04030c00900300005a
:020000040000fa
:040310009003000056
:020000040000fa
:040314009003000052
:020000040000fa
:04031800900300004e
:020000040000fa
:04031c00900300004a
:020000040000fa
:040320009003000046
:020000040000fa
:040324009003000042
:020000040000fa
:04032800900300003e
:020000040000fa
:04032c00900300003a
:020000040000fa
:040330009003000036
:020000040000fa
:040334009003000032
:020000040000fa
:04033800900300002e
:020000040000fa
:04033c00900300002a
:020000040000fa
:040340009003000026
:020000040000fa
:040344009003000022
:020000040000fa
:04034800900300001e
:020000040000fa
:10040000cf8220000e7f22000e0188000000000035
:10041000000020000000e000020032000001200087
:100420002002880014000700bf0007000000e00061
:1004300003003a0000722000010020000200370093
:100440000000200001002000810f70000100320038
:1004500014000700000020000000e000020032004d
:1004600000000200000000009405020000000000ef
:100470000040da000000fe004440a9000000200017
:100480000000e0000300320000002000a00188000e
:100490004440a800000006008a1f78008b1f7800e7
:1004a0000000060091018800800478000000eb0045
:1004b0001a003700e284440032a0b4009905ba0063
:1004c000e284440032a0b4009906ba00e2844400f9
:1004d00032a0b4000006eb00476fde00fd07b2005b
:1004e000636ce10003003a00ebff07000000eb0043
:1004f0000a003700606ce10004003a00005deb0088
:100500008b05e900fdff3e00040037006168e10053
:10051000010032000086eb000b00070019c7ba008b
:100520001905ba000e04e00003003a000a00e000da
:10053000e0ff3a0000000600fe07b2009e018800be
:100540008a047800f5ff3700395dba008b05e900b1
:100550000c003200295dba008b05e900080032006a
:100560000c00e00003003a00e284440032a0b40032
:10057000f5ff370019ddba008b05e900faff3a00f4
:100580008904e800e184440032a0b40000000600c1
:10059000000000000000000000000000000000005b
:1005a000000000000000000000000000000000004b
:1005b0003600f800809fbe00829fbe00849fbe0070
:1005c000869fbe000000fa008020a9000000eb001a
:1005d0003e0207000080fa004f03be004f02be003b
:1005e0004f01be004f00be003600f900004006007b
:1005f0003600f800809fbe00829fbe00849fbe0030
:10060000869fbe000000fa00350207008040a90066
:10061000100020002d0207000080fa004f03be00ea
:100620004f02be004f01be004f00be003600f90071
:10063000004006003600f800809fbe00829fbe008a
:10064000849fbe00869fbe000000fa008060a90063
:10065000200020001d0207000080fa004f03be00aa
:100660004f02be004f01be004f00be003600f90031
:10067000004006003600f800809fbe00829fbe004a
:10068000849fbe00869fbe000000fa008080a90003
:10069000300020000d0207000080fa004f03be006a
:1006a0004f02be004f01be004f00be003600f900f1
:1006b000004006003600f800809fbe00829fbe000a
:1006c000849fbe00869fbe000000fa00404080006c
:1006d0000000e00002003200404080000000010005
:1006e000b0822000104078008040e800b0822000f6
:1006f00001487800a082200011c0b30001487800b2
:100700008460a9000080fa004f03be004f02be00c3
:100710004f01be004f00be003600f9000040060049
:0c0720000040da000000fe0000000500b0
:020000040000fa
:10072c000000fa0021e3a8000080fa000000060097
:10073c000000fa002023a8000080fa000000060048
:10074c000000fa002023a9000080fa000000060037
:10075c000200fa00000f78001e0078000000e00094
:10076c0003003200e10f5000060032000900370090
:10077c004119800000ff2f000080600040198800a4
:10078c000400370040198000f000b30040198800c5
:10079c00000000000080fa00000006000400fa00cf
:1007ac001007980001188000010f78001e007800d7
:1007bc000080fa00000006000400fa001007980000
:1007cc000019800000407800614060000080fb0050
:1007dc0000f0a7000000ea000000ea004f00de0075
:1007ec00004f78001e4078000080fa0000000600e0
:1007fc000200fa00000f78001e0078000000e000f4
:10080c0005003a00cde2a900cdc2a900cda2a900f5
:10081c00cd82a900470037001e007800e10f500080
:10082c0005003a00cde2a800cdc2a900cda2a900d6
:10083c00cd82a9003f0037001e007800e20f500067
:10084c0005003a00cde2a900cdc2a800cda2a900b6
:10085c00cd82a900370037001e007800e30f50004e
:10086c0005003a00cde2a800cdc2a800cda2a90097
:10087c00cd82a9002f0037001e007800e40f500035
:10088c0005003a00cde2a900cdc2a900cda2a80076
:10089c00cd82a900270037001e007800e50f50001c
:1008ac0005003a00cde2a800cdc2a900cda2a80057
:1008bc00cd82a9001f0037001e007800e60f500003
:1008cc0005003a00cde2a900cdc2a800cda2a80037
:1008dc00cd82a900170037001e007800e70f5000ea
:1008ec0005003a00cde2a800cdc2a800cda2a80018
:1008fc00cd82a9000f0037001e007800e80f5000d1
:10090c0005003a00cde2a900cdc2a900cda2a900f4
:10091c00cd82a800070037001e007800e90f5000b8
:10092c0004003a00cde2a800cdc2a900cda2a900d6
:10093c00cd82a8000080fa00000006000800fa0032
:10094c0001408000803e2000000178001100090069
:10095c008200d800000f780001408000803e20000b
:10096c0000017800110009008200d8008000fd0011
:10097c0000017800b04721000090b900c388de0068
:10098c004f90de000080500010079800014080005e
:10099c00b04721000089b9004399de004f88de0082
:1009ac0000005100420620000281b90002007800cc
:1009bc0000805000716626000181b900c298de00eb
:1009cc004f80de000080500020079800004080001f
:1009dc00716626000181b9004299de00cf80de00ed
:1009ec00810051006a09b9008200780001005000b2
:1009fc003007980010408000e10f500007003a00cb
:100a0c00cd22a900cd02a800cce2a800ccc2a8003f
:100a1c001e00780076ff07001e0037001040800093
:100a2c00e20f500007003a00cd22a800cd02a90029
:100a3c00cce2a800ccc2a8001e0090006cff0700fe
:100a4c001400370010408000e30f500007003a00fc
:100a5c00cd22a800cd02a800cce2a900ccc2a800ef
:100a6c002e00900062ff07000a0037001040800043
:100a7c00e40f500007003a00cd22a800cd02a800d8
:100a8c00cce2a800ccc2a9003e00900058ff0700a1
:100a9c000228ef00104080000000e80010408800a1
:100aac000000eb000080fa00000006000000fa00d5
:100abc008056200000000100a0ff07000080fa0013
:100acc00000006000200fa0019ff07000000eb000e
:100adc00000f7800010037001e0fe800703e200068
:100aec009e007800808f5000fbff340014ff07003d
:100afc00000000000000eb002fff07000004a20024
:100b0c000004e000fbff3a000000eb0023ff0700ad
:100b1c00004088000080fa00000006000000fa0087
:100b2c00f300070064000700070007003d00070002
:100b3c00fbfe07000000eb0005ff0700c05520007e
:100b4c0030000700ffff37000000fa000021ef0023
:100b5c00f0f9200010088800000028002008880008
:100b6c00404080000000e00002003a0020602000bd
:100b7c00240007008460a9009460a800a0822000d3
:100b8c008040eb00014878000080fa00000006006d
:100b9c000200fa00000f78009e007800110888000f
:100bac00a08220008040eb00014878000080fa0011
:100bbc00000006000000fa00100880000080fa0017
:100bcc00000006000200fa00000f78009e0078007a
:100bdc0001088800a08220008040eb0001487800ca
:100bec000080fa00000006000000fa0000088000f7
:100bfc000080fa00000006000000fa000080fa00f5
:100c0c00000006000200fa00000f78009460a900b2
:100c1c009e007800414088009460a8000080fa0093
:100c2c00000006000000fa00a08220008040eb00cb
:100c3c00014878009460a80005e1a8000080fa0043
:100c4c00000006000000fa0005e1a9009460a9006c
:100c5c000080fa00000006000200fa00a0822000ca
:100c6c00104f78001e4078000004e00003003200b2
:100c7c00a08220008040eb00014878001e407800e4
:100c8c000080fa00000006000000fa00b08220008c
:100c9c00104078000080fb000080fa000000060085
:100cac000000fa00b08220008040eb000148780080
:100cbc000080fa00000006000000fa000000280086
:100ccc00001988002223ef002423ef002823ef00d3
:100cdc003023ef0080672000050007000080fa0039
:100cec00000006000000fa000080fa000000060078
:100cfc000200fa00000f78001e00780030408800d7
:100d0c000080fa00000006000000fa0021048000b8
:100d1c0000002200008060000000e00006003200ad
:100d2c00304080000000e0000200320030408000c3
:100d3c000000010085a0a9000080fa000000060058
:100d4c000000fa002023a8000080fa000000060032
:100d5c000000fa002023a9000080fa000000060021
:100d6c000800fa0030079800101980004200de00dd
:100d7c006f4060000080fb002007980000302000ce
:100d8c00100798000000eb00000f78000b003700f4
:100d9c001e00780000004000be0090000080400063
:100dac009e00900091007800010878001e009000d1
:100dbc000080e800100798001e0fe8009e007800e5
:100dcc002e009000808f5000f1ff36001e0078003e
:100ddc000080fa00000006000000fa00001023005a
:100dec00203a88004827ef007027ef007227ef00a9
:100dfc007427ef007200200080072000a10920005a
:100e0c003374200080497800814978008249780049
:100e1c000001eb0060042000710520002374200009
:100e2c008049780081497800824978000080fa0076
:040e3c0000000600ac
:020000040000fa
:100e40000a08000020000000000000000408000064
:100e50000200000002000000ffff00000008000088
:100e6000040000000000000006080000020000006e
:100e7000000000002a08000002000000000000003e
:100e80000808000002000000000000000000000050
:020000040000fa
:100e90000000fa00c422ef00cc22ef007001200015
:100ea00000168800f0c32000401688006820ef007c
:100eb0006a20ef00c622ef00ce22ef00c0e0210042
:100ec000601988000080fa00000006000200fa00a5
:100ed000000f78009e00780021408800ffff370057
:100ee0000000fa00a0802000800778002082200007
:100ef000000188000080fa00000006000000fa00ef
:100f0000e3ff0700b7ff0700040007006dff0700bd
:100f100010ff07000080fa00000006000000fa0041
:100f200021058000f0ff28000080600000c0a000c4
:0c0f3000200588000080fa000000060088
:020000040000fa
:020000040001f9
:0457f8009f7f00008f
:020000040000fa
:020000040001f9
:0457fc007f3f0000eb
:00000001FF
