:020000040000fa
:080000000002040000000000f2
:020000040000fa
:04000800ca03000027
:020000040000fa
:04000c00e40200000a
:020000040000fa
:0400100026030000c3
:020000040000fa
:0400140004030000e1
:020000040000fa
:04001800460300009b
:020000040000fa
:04001c00ca03000013
:020000040000fa
:04002000ca0300000f
:020000040000fa
:04002400ca0300000b
:020000040000fa
:04002800ca03000007
:020000040000fa
:04002c00ca03000003
:020000040000fa
:04003000ca030000ff
:020000040000fa
:040034009403000031
:020000040000fa
:04003800ca030000f7
:020000040000fa
:04003c00ca030000f3
:020000040000fa
:04004000ca030000ef
:020000040000fa
:04004400ca030000eb
:020000040000fa
:04004800ca030000e7
:020000040000fa
:04004c00ca030000e3
:020000040000fa
:04005000ca030000df
:020000040000fa
:04005400ca030000db
:020000040000fa
:04005800ca030000d7
:020000040000fa
:04005c00ca030000d3
:020000040000fa
:04006000ca030000cf
:020000040000fa
:04006400ca030000cb
:020000040000fa
:04006800ca030000c7
:020000040000fa
:04006c00ca030000c3
:020000040000fa
:04007000ca030000bf
:020000040000fa
:04007400660300001f
:020000040000fa
:04007800ca030000b7
:020000040000fa
:04007c00ca030000b3
:020000040000fa
:04008000ca030000af
:020000040000fa
:04008400ca030000ab
:020000040000fa
:04008800ca030000a7
:020000040000fa
:04008c00ca030000a3
:020000040000fa
:04009000ca0300009f
:020000040000fa
:04009400ca0300009b
:020000040000fa
:04009800ca03000097
:020000040000fa
:04009c00ca03000093
:020000040000fa
:0400a000ca0300008f
:020000040000fa
:0400a400ca0300008b
:020000040000fa
:0400a800ca03000087
:020000040000fa
:0400ac00ca03000083
:020000040000fa
:0400b000ca0300007f
:020000040000fa
:0400b400ca0300007b
:020000040000fa
:0400b800ca03000077
:020000040000fa
:0400bc00ca03000073
:020000040000fa
:0400c000ca0300006f
:020000040000fa
:0400c400ca0300006b
:020000040000fa
:0400c800ca03000067
:020000040000fa
:0400cc00ca03000063
:020000040000fa
:0400d000ca0300005f
:020000040000fa
:0400d400ca0300005b
:020000040000fa
:0400d800ca03000057
:020000040000fa
:0400dc00ca03000053
:020000040000fa
:0400e000ca0300004f
:020000040000fa
:0400e400ca0300004b
:020000040000fa
:0400e800ca03000047
:020000040000fa
:0400ec00ca03000043
:020000040000fa
:0400f000ca0300003f
:020000040000fa
:0400f400ca0300003b
:020000040000fa
:0400f800ca03000037
:020000040000fa
:0400fc00ca03000033
:020000040000fa
:04010000ca0300002e
:020000040000fa
:04010400ca0300002a
:020000040000fa
:04010800ca03000026
:020000040000fa
:04010c00ca03000022
:020000040000fa
:04011000ca0300001e
:020000040000fa
:04011400ca0300001a
:020000040000fa
:04011800ca03000016
:020000040000fa
:04011c00ca03000012
:020000040000fa
:04012000ca0300000e
:020000040000fa
:04012400ca0300000a
:020000040000fa
:04012800ca03000006
:020000040000fa
:04012c00ca03000002
:020000040000fa
:04013000ca030000fe
:020000040000fa
:04013400ca030000fa
:020000040000fa
:04013800ca030000f6
:020000040000fa
:04013c00ca030000f2
:020000040000fa
:04014000ca030000ee
:020000040000fa
:04014400ca030000ea
:020000040000fa
:04014800ca030000e6
:020000040000fa
:04020800ca03000025
:020000040000fa
:04020c00e402000008
:020000040000fa
:0402100026030000c1
:020000040000fa
:0402140004030000df
:020000040000fa
:040218004603000099
:020000040000fa
:04021c00ca03000011
:020000040000fa
:04022000ca0300000d
:020000040000fa
:04022400ca03000009
:020000040000fa
:04022800ca03000005
:020000040000fa
:04022c00ca03000001
:020000040000fa
:04023000ca030000fd
:020000040000fa
:04023400940300002f
:020000040000fa
:04023800ca030000f5
:020000040000fa
:04023c00ca030000f1
:020000040000fa
:04024000ca030000ed
:020000040000fa
:04024400ca030000e9
:020000040000fa
:04024800ca030000e5
:020000040000fa
:04024c00ca030000e1
:020000040000fa
:04025000ca030000dd
:020000040000fa
:04025400ca030000d9
:020000040000fa
:04025800ca030000d5
:020000040000fa
:04025c00ca030000d1
:020000040000fa
:04026000ca030000cd
:020000040000fa
:04026400ca030000c9
:020000040000fa
:04026800ca030000c5
:020000040000fa
:04026c00ca030000c1
:020000040000fa
:04027000ca030000bd
:020000040000fa
:04027400660300001d
:020000040000fa
:04027800ca030000b5
:020000040000fa
:04027c00ca030000b1
:020000040000fa
:04028000ca030000ad
:020000040000fa
:04028400ca030000a9
:020000040000fa
:04028800ca030000a5
:020000040000fa
:04028c00ca030000a1
:020000040000fa
:04029000ca0300009d
:020000040000fa
:04029400ca03000099
:020000040000fa
:04029800ca03000095
:020000040000fa
:04029c00ca03000091
:020000040000fa
:0402a000ca0300008d
:020000040000fa
:0402a400ca03000089
:020000040000fa
:0402a800ca03000085
:020000040000fa
:0402ac00ca03000081
:020000040000fa
:0402b000ca0300007d
:020000040000fa
:0402b400ca03000079
:020000040000fa
:0402b800ca03000075
:020000040000fa
:0402bc00ca03000071
:020000040000fa
:0402c000ca0300006d
:020000040000fa
:0402c400ca03000069
:020000040000fa
:0402c800ca03000065
:020000040000fa
:0402cc00ca03000061
:020000040000fa
:0402d000ca0300005d
:020000040000fa
:0402d400ca03000059
:020000040000fa
:0402d800ca03000055
:020000040000fa
:0402dc00ca03000051
:020000040000fa
:0402e000ca0300004d
:020000040000fa
:0402e400ca03000049
:020000040000fa
:0402e800ca03000045
:020000040000fa
:0402ec00ca03000041
:020000040000fa
:0402f000ca0300003d
:020000040000fa
:0402f400ca03000039
:020000040000fa
:0402f800ca03000035
:020000040000fa
:0402fc00ca03000031
:020000040000fa
:04030000ca0300002c
:020000040000fa
:04030400ca03000028
:020000040000fa
:04030800ca03000024
:020000040000fa
:04030c00ca03000020
:020000040000fa
:04031000ca0300001c
:020000040000fa
:04031400ca03000018
:020000040000fa
:04031800ca03000014
:020000040000fa
:04031c00ca03000010
:020000040000fa
:04032000ca0300000c
:020000040000fa
:04032400ca03000008
:020000040000fa
:04032800ca03000004
:020000040000fa
:04032c00ca03000000
:020000040000fa
:04033000ca030000fc
:020000040000fa
:04033400ca030000f8
:020000040000fa
:04033800ca030000f4
:020000040000fa
:04033c00ca030000f0
:020000040000fa
:04034000ca030000ec
:020000040000fa
:04034400ca030000e8
:020000040000fa
:04034800ca030000e4
:020000040000fa
:10040000af8520000e7f22000e0188000000000052
:10041000000020000000e000020032000001200087
:100420002002880014000700dc0007000000e00044
:1004300003003a00204a210001002000020037009a
:100440000000200001002000810f70000100320038
:1004500014000700000020000000e000020032004d
:100460000000020000000000401302000000000035
:100470000040da000000fe004440a9000000200017
:100480000000e0000300320000002000a00188000e
:100490004440a800000006008a1f78008b1f7800e7
:1004a0000000060091018800800478000000eb0045
:1004b0001a003700e284440032a0b4009905ba0063
:1004c000e284440032a0b4009906ba00e2844400f9
:1004d00032a0b4000006eb00476fde00fd07b2005b
:1004e000636ce10003003a00ebff07000000eb0043
:1004f0000a003700606ce10004003a00005deb0088
:100500008b05e900fdff3e00040037006168e10053
:10051000010032000086eb000b00070019c7ba008b
:100520001905ba000e04e00003003a000a00e000da
:10053000e0ff3a0000000600fe07b2009e018800be
:100540008a047800f5ff3700395dba008b05e900b1
:100550000c003200295dba008b05e900080032006a
:100560000c00e00003003a00e284440032a0b40032
:10057000f5ff370019ddba008b05e900faff3a00f4
:100580008904e800e184440032a0b40000000600c1
:10059000000000000000000000000000000000005b
:1005a000000000000000000000000000000000004b
:1005b000000000000000000000000000000000003b
:1005c00000000000000000003600f800809fbe0020
:1005d000829fbe00849fbe00869fbe000000fa007e
:1005e0008020a9000000eb00480907000080fa0005
:1005f0004f03be004f02be004f01be004f00be00c1
:100600003600f900004006003600f800809fbe006a
:10061000829fbe00849fbe00869fbe000000fa003d
:100620003f0907008040a90010002000370907009b
:100630000080fa004f03be004f02be004f01be0013
:100640004f00be003600f900004006003600f800fa
:10065000809fbe00829fbe00849fbe00869fbe001a
:100660000000fa008060a900200020002709070090
:100670000080fa004f03be004f02be004f01be00d3
:100680004f00be003600f900004006003600f800ba
:10069000809fbe00829fbe00849fbe00869fbe00da
:1006a0000000fa008080a900300020001709070030
:1006b0000080fa004f03be004f02be004f01be0093
:1006c0004f00be003600f900004006003600f8007a
:1006d000809fbe00829fbe00849fbe00869fbe009a
:1006e0000000fa0030048000680060000000e000b4
:1006f00006003200804080000000e000020032006e
:1007000080408000000001008660a9000080fa009f
:100710004f03be004f02be004f01be004f00be009f
:100720003600f900004006003600f800809fbe0049
:10073000829fbe00849fbe00869fbe000000fa001c
:10074000a04080000000e00002003200a0408000d5
:100750000000010090852000104078008040e800f3
:1007600090852000014878008085200011c0b300ea
:10077000014878008460a9000080fa004f03be00a1
:100780004f02be004f01be004f00be003600f90010
:10079000004006000040da000000fe0000000500f6
:1007a0000001be00220007000470a70003f0a100b2
:1007b0006509b100160032000d0035006828e1001f
:1007c00006003500f0ff2f00f1ff27000300e000d6
:1007d00013003b000100280000000500000040005d
:1007e000818048008502e900fcff3a0008003700dc
:1007f000f88f420002003c008000eb000000050082
:100800008100d1000080d3008502e800fcff3a009f
:100810000300e00002003b0060001000e0801800d0
:10082000000006004f89de008201780005023700d3
:10083000c70ade00f107b200f50fb200080032006f
:10084000e1cf4200020032000170a0002400050048
:10085000810f70000100320004080500440005000b
:10086000810f700002003a00140005008502e900c3
:100870000000400081c04800fcff3b000170a00068
:100880002400050007f82700078361000638e1000f
:1008900004003a00f7072000878361008703710096
:1008a00001003a0003f0a200889fbe008a9fbe00ac
:1008b0008c9fbe00470ade000480a100c71ade003c
:1008c0000580a1000700280007856000878561007a
:1008d000f70f20000720e1009e0032000728e1000a
:1008e0009c003200010678000400e000b4003200f1
:1008f000f7072000878060000170a0000500e0007d
:10090000c0003200f7072000878161000370a0005b
:10091000050652000f003a000b50e1000b003200b8
:100920000308e10002003a000200e1007e0032000c
:100930000204500083845800040031000001fd00cf
:100940008101fd008402fd008a05fd006044b800bd
:10095000210037000520e10005003d000001fd00f9
:100960008101fd008402fd008a05fd00050652009c
:100970007a60e100050035000170a1004722dd002a
:10098000848070008a807000630037006044b80083
:10099000ef02660007ff2f00070666000500e00073
:1009a00006003400f08312008714dd000511de001c
:1009b000071bdd00060171008519de007060e10093
:1009c00005003500090478008204780003017800ee
:1009d0008001eb00700656000b50e10003003a0066
:1009e00002004000838048000400370060041400c7
:1009f000e0841c0002005800838058000188a30096
:100a0000060032008100d1000080d3008984d30029
:100a10000884d3000402e800270037000178a3000f
:100a200025003a000100e000030032008186cf007b
:100a3000698656000a0037008c0020000000e000a4
:100a400004003a0009007800880478000004eb00f4
:100a5000700252008086cf000d0646000c06e900a9
:100a60007060e10006003500800078000900780021
:100a7000880478000004eb007006560070025200f3
:100a80000c00e0000c0034008c08dd00f0031600c0
:100a90000703de00868070000c00dd00074bde00df
:100aa000060070008c4cdd000743de008684740075
:100ab0000c44dd000c0252006120e10020003500f2
:100ac000610160000700280087816400f7ff2700ac
:100ad00087836400070374000300e000060032000f
:100ae00082037300040032000000e800e080480048
:100af0000188a3000e003a00f70f20000720e10054
:100b00004a003d000170a1004722dd008100720013
:100b10008a8070000000be004f06be004f05be0078
:100b20004f04be00000006006000b800faff370066
:100b30008100d1000080d3000402e800eeff3700fe
:100b40000401780089017400c20007008a807000e7
:100b5000f1ff370018010700070278000001fd00cf
:100b60008101fd00140107008702780085037200ef
:100b70000778a300040032000001fd008101fd00a0
:100b800027010700e4ff3700850362000768a30020
:100b9000080032000b50e10003003200f0ff2f008c
:100ba000f1ff2700dcff37000001fd008101fd009f
:100bb000d9ff37000468a300d7ff3200faff3700df
:100bc000f8ff2700888360000b003a000000e00077
:100bd00009003a008303640082837300020032003c
:100be0000200be00ccff37000b50e100ceff3a0000
:100bf0000200be00c8ff370014002000810064001e
:100c00003eff3700f8ff27008883610004003a00a8
:100c10000200e00002003a008c007800beff3700be
:100c2000150020008301640039ff370001f8270018
:100c30000000200081007500b7ff370003836800c3
:100c40000700280007036300470ade000480a100b4
:100c5000c71ade000580a100f70f20000720e10081
:100c6000420032000728e10040003200889fbe00a9
:100c70008a9fbe008c1f7800f107b200f307b20014
:100c80000400e000640032000170a0000500e000f4
:100c9000680032000370a00085054200eb07b10038
:100ca0000204b8000302b8008484440060854a004e
:100cb000020ab800848444000a854a00030ab80086
:100cc00004054500040033000804d0008984d200e4
:100cd0000a85d2008b05e9006158e1003d0035002e
:100ce00002102000090161000308200089816100d1
:100cf000f70720008783640008867300c84cde0075
:100d0000c853dd00878474004855de000300e0000e
:100d10000600320082037600040032008904e800f5
:100d200060054d000a88a3000c003a00f70f200070
:100d30000758e10044003d000a70a100c75ddd00d6
:100d40000a8575008a007300090078004f06780054
:100d50004f05be004f04be00000006000a05d1008a
:100d60008984d3008b05e800f0ff3700881f7800e6
:100d70000604780090000700070278000001fd00db
:100d80008101fd008c000700870278008503720056
:100d90000778a300050032000001fd008101fd007d
:100da0009f0007004f0478000000060085037200d2
:100db0000748a30003003200f0ff2f00f1ff2700d7
:100dc000f8ff37000000200001f82700888070003d
:100dd000f4ff3700880178004848dd008081710009
:100de0004848de00c850dd0001007000c850de0039
:100df000060478000b017800160007008880700058
:100e0000d2ff37000500e000050032001700200087
:100e10003a0007009dff370081037000f9ff3a0098
:100e2000860078004f0678004f05be004f04be00d4
:100e30000000050083037100f9ff32002700200045
:100e40002e00070094ff370001f82700868070000d
:100e5000f4ff37000100e0002600320061011100bc
:100e60007810e10023003c006022b8007010e1001f
:100e70000400350080027800010078008000eb005b
:100e8000700151000200e0000900340070031100fd
:100e9000062add00822ade008603dd0087827200da
:100ea0000200de00860bdd00070070008208de0015
:100eb00084817100f4ff2700048262008481710044
:100ec00004002800848262006102600005f0a60030
:100ed0000000060004827100070032000000e800f4
:100ee000e0804800000006000002be006000b8007c
:100ef000efff37006000b80000000600889fbe00ca
:100f00000004eb006138e10016003a000100e00047
:100f100008003a00c800de004800dd00880020001c
:100f20000100e00003003a00c800de004800dd00d8
:100f3000680444008184cf00e98454000600340032
:100f40008908dd00f08314008703de0087807000cd
:100f50000900dd0009044400610214004f04be00d2
:100f6000000006000300e00008003a00c811de009f
:100f70004811dd00880020000300e00003003a0073
:100f8000c811de004811dd00680444008384cf00ee
:100f9000e9845400060034008919dd00f083140050
:100fa0008713de00878171000911dd000904440008
:100fb000e1021400e9ff37002700200001f0a7003c
:100fc00017002000470bde00f60fb20004003200cd
:100fd0000643e8000a0032004702b30000000600a2
:100fe00001037800f607b2000603700002003a0021
:100ff0000703b300000006008702b30000000600ec
:1010000001037800f607b200060370000200320008
:101010000770a000000006000760a00000000600a6
:101020000478a300040032000578a3000300320016
:101030000168a30001003a000200be000160a000a8
:1010400000000600881f7800030478000300e00019
:1010500007003d0060001000e080180060011900ea
:10106000e081190002003b0001f02d000300370071
:101070000400070008f0a70001f0a0004f0478006a
:1010800000000600889fbe008a9fbe00008270009c
:101090000402710004827100260032000004be00c8
:1010a0000200be006011b8006b092000950220000c
:1010b0000182cf000a0039000541b1000082cf0053
:1010c000070039000541b1000982cf000400390052
:1010d0000541b1000882cf00010039000541b1008f
:1010e00005425200120032000a003b00828171006a
:1010f000610164008100d1000080d3008984d300a5
:101100000884d3008b05e8000442e800f7ff3a00aa
:10111000070037000804440089844c0000004800a0
:10112000818048008b05e9000442e900f9ff3a009c
:10113000030007004f05be004f04be00000006007c
:1011400081002000618055000b003d000b00200055
:1011500061fe2f000100e1001d003400828171005a
:10116000610164008904d1000884d3000000e80014
:10117000faff3a0071002000610064000300700073
:10118000020060000900320061044400e0844c0069
:101190000988a500050032008b05e8006808e10019
:1011a00002003a008904d1000884d300f20f200025
:1011b0000258e10005003d00c75ddd00f907b200ff
:1011c0008980750008007800000006000bf82700f1
:1011d0008b00780000000500000006000800fa00ff
:1011e000889fbe008a9fbe008c9fbe000004be0088
:1011f0000200be00e2b79f00f3b79f00f6ff0700b2
:101200008102780005f0a100000278000c002000a7
:101210000df827006fb19700ffb197008c0f5200b7
:101220008d8f5a000a003e000800be00eaff07004a
:101230008102780005f0a100000278006fb19700ec
:10124000ffb197008c0f52008d8f5a0003003600bb
:101250000800be0094fd0700980037000203be009e
:101260000000200001f82300800f5300818f5b00f5
:1012700003003a000800be00980007008f00370006
:101280000802be004e3dde000b0020006000b800ea
:10129000620065004f4dde000b0020000a05700063
:1012a0008b8570008500780001f0a10008007800af
:1012b000e00f5000e08f580007003a00e20f5500a1
:1012c000e08f5d0033003200e30f5500e08f5d00da
:1012d0007b003a00320037008702780005f0a10059
:1012e00006027800e00f5200e08f5a003b00320007
:1012f0008c0f52008d8f5a002c003a00840f500042
:10130000858f580018003a00e20f5500e08f5d000d
:1013100009003200e30f5500e08f5d000900320044
:10132000e10f5500e08f5d005b003200b8fd20004a
:1013300099f4230062003700020020000304240017
:10134000020037000200200003042c00b0fd200042
:101350009104240039fe07000200200003e8230066
:1013600036fe070055003700e20f5500e08f5d00a4
:1013700008003200e30f5500e08f5d0008003200e6
:101380006044b800e10f5500e08f5d004c003a006a
:1013900044003700b8fd20009904240048003700bd
:1013a000b8fd200099042c004500370006002000fd
:1013b00007d020000403430085834b0086bf9f00b5
:1013c00097bf9f00800f5300818f5b00030039009f
:1013d0008c0f50008d8f580005003a000a08a300ba
:1013e00033003200b8fd200099fc2b003400370098
:1013f0006033b80062036500e00f5300e08f5b00cc
:10140000080032000c0020000dd020000003460030
:1014100081834e006000b800840f5300858f5b000d
:10142000040039000800be00ac01070001010700fc
:101430002a000700e10f5500e08f5d000500320033
:101440001e003900e20f5500e08f5d000b003a00ee
:10145000030037000004be0009f0a20018003700a6
:10146000e2d22b00b33b23000ffd07000001be00ba
:10147000b0fd20009104240005003700e2d22b00cb
:10148000b33b230008fd0700b2fd200093042400b5
:10149000fcfc070009003700b8fd200099f42b0080
:1014a000070037000800200009002800040037006a
:1014b000b8fd200099fc2300010037000004be00a5
:1014c0000800be004f06be004f05be004f04be0020
:1014d0000080fa0000000600000006000c00fa0080
:1014e000889fbe008a9fbe008c9fbe000004be0085
:1014f0004f09de0003002000e2b79f00f3b79f0012
:10150000810678000df0a10000067800f0ff2f00a2
:10151000f1c72400800f5600818f5e001000360056
:101520000800be00ecff07008101780003f0a10075
:10153000000178000000200001f82700800f510012
:10154000818f5900b5003e000200200003382000c2
:10155000a0fd200091fc2300d3fc0700a60037006b
:10156000f0ff2f00f1ed2300800f5600818f5e0009
:1015700011003e000085eb00f0ff2f00f1972300e3
:10158000800f5600818f5e0055003e00f0ff2f0057
:10159000f1072000800f5600818f5e009f003e0003
:1015a0000801be000800be00a4fd0700c0b79f00f0
:1015b000d1b79f00990037000800be009d000700ca
:1015c0000004be00f0ff2f0071f92300800f5600c9
:1015d000818f5e0025003e00f0ff2f00f1f2230016
:1015e000800f5600818f5e0011003e000801be0092
:1015f0000800be00acfc07000200200003f8230036
:10160000a0fc07000005be0002002000030024002b
:101610000800be00a4fc07000001be000a00be00d6
:101620002e0107000004be000005eb002c0037006f
:101630000200200003f823000800be0091fc070010
:101640000005be000200200003f823000800be00d1
:1016500095fc07000001be000a00be001f01070044
:101660000004be001a0020001d003700f0ff2f000c
:10167000b1012400800f5600818f5e0012003e00f1
:101680000200200003fc23000800be007dfc0700d0
:101690000005be000200200003fc23000800be007d
:1016a00066fd07000200200003f823007efc07000f
:1016b0000001be000a00be00080107000004be00d1
:1016c0002a002000060037000801be0000002000ac
:1016d00001f82b00010107000004be003a002000c1
:1016e0000801be000800be0054fd07000002be0055
:1016f0000001be0084bf9f0095bf9f004ffd070003
:101700000006be0052c22a00c3d723004bfd0700cb
:10171000d2502f0013e1230063fc07000001be003c
:101720000c00be0045fd070092aa2a00a3ea230090
:101730005dfc07000001be000fba97009fba97003a
:101740000400be003dfd07000002be00722421001f
:10175000a3dd2b000c00be0084bf9f0095bf9f003f
:1017600036fd070082a92c00c3e4230045fc0700d6
:101770000001be000c00be0030fd07000001be00ed
:101780000fba97009fba9700e10f450009003a0091
:101790000400be0044fc07000001be000800be00bb
:1017a00026fd07000001be000800be0035fc070052
:1017b000190037004255dd008c8320000a064600e0
:1017c0000400be0038fc07000001be000800be0097
:1017d0001afd0700828420000a0541001a01be009c
:1017e00028fc07000801be0026fc07000001be001f
:1017f0001c00be0023fc07006fb19700ffb19700eb
:10180000e00f5100e08f5900030032000004be00d9
:1018100009f0a200010037000004be000800be006d
:101820004f06be004f05be004f04be000080fa0008
:10183000000006000001be008300780001f0a10056
:101840000200780000000600000006000400fa0014
:10185000889fbe008a9fbe008c9fbe000004be0011
:101860000205be000206410083864900e00f5600d3
:10187000e08f5e00140032000200be0082bf9f00b5
:1018800093bf9f00f0ff07008102780005f0a100e0
:10189000000278000000200001f827000fb997002f
:1018a0009fb99700800f5200818f5a0006003e00ba
:1018b0000802be00474bde00070020000680fb0048
:1018c000e14f430005003a000800be00dbfc0700c2
:1018d0000001be0081000700090037000801440034
:1018e00089814c008c0f51008d8f590006003e00fd
:1018f00074003a006011b8000800be00cffc070079
:101900000004be006f0037000000e00013003a0042
:101910004949dd00c741de00830171004941dd0016
:10192000030037000000e900020141008381490003
:10193000e00f5100e08f5900faff3d00e100100078
:101940000401be008100e9000300330002014100f0
:1019500083814900fbff37000400370085017800d0
:10196000f307b200080178000370a000475bde00b7
:101970000700200086007800f10fb20012003a0044
:10198000495bdd00c753de00870373004953dd0068
:10199000030037008100e9000603430087834b0002
:1019a000e00f5300e08f5b00faff3d006183100001
:1019b0000603e900030033000a0545008b854d004e
:1019c000fbff3700100037008b037800f707b200e9
:1019d0000a0378000605be000b70a0000a0037005d
:1019e000e00f5300e08f5b0004003500e00f530070
:1019f000e08f5b00bfff32000601be000201410024
:101a0000838149000000e9000a0351008b835900db
:101a1000810f5000f2ff3c00e00f5300e08f5b00ad
:101a200003003d00090037000601be000700370033
:101a3000e00f5300e08f5b00fbff3a00adff370083
:101a400002014100838149000000e900471bde00dc
:101a500007002000e00f5300e08f5b00f8ff32002a
:101a60000000e0000a0034000600200007f82f0004
:101a70000201430083814b00cf80de00c700dd0000
:101a80000000200002017000838170000600370012
:101a9000610010000000e900030033008301d10061
:101aa0000281d300fbff3700000020000100280066
:101ab0008583600000037800060171008781710052
:101ac0000204be000800be004f06be004f05be0067
:101ad0004f04be000080fa0000000600889fbe0090
:101ae0008a9fbe008c9fbe001b0020000202be0029
:101af0000586680006002800060666004709de0025
:101b0000f20fb200820032000243e800800032008f
:101b1000c729de00f30fb2007d0032000343e80066
:101b20007b003200f107b2000170a000f507b2009f
:101b30000570a000c708dd004903de008680700044
:101b40004700dd00c72add004923de0086827200df
:101b50004722dd000305510004035000858358002f
:101b60000300310000004000818048000a05e900c0
:101b70008c1f78008a9fbe000400500085805800aa
:101b80000402420085824a00000040008180480033
:101b90000005eb000004be006033b8000406be0080
:101ba0000d48e10056003100110009004dccd8006d
:101bb0000c01b8000d02b8008481410060824a0027
:101bc0008283530003045c0084845c0060055d0034
:101bd0000a00e00025003a00800578000d40e10091
:101be00049003100880078000700780011000900e2
:101bf0004d88d8000c01b8000d02b8008481410066
:101c000060824a006003110083835b0004045c006f
:101c1000e0845c000900e00021003a004f01be00b2
:101c20000300e0002b003200e301600007067300b0
:101c30008c81710001003200640070004200de00ff
:101c40004e5edd000c007000c258de0001e0a00016
:101c500081000700cf017800818071004f06be002f
:101c60004f05be004f04be00000006008c834300f9
:101c70000d044c00e0844c0060054d000000e900bc
:101c80000a00e000d4ff32008c8343000d044c00b6
:101c9000e0844c0060054d000000e900ceff3700f5
:101ca0000c0343008d834b0060044c00e0844c0027
:101cb0000000e9000900e000d8ff32000c034300f7
:101cc0008d834b0060044c00e0844c000000e90070
:101cd000d2ff37004200de004e5edd000c007000d7
:101ce000c258de0001e0a000cf0178000300e00050
:101cf000daff320060001000e0801800d7ff3700e4
:101d0000f0ff2f00aaff3700f0ff2f00b9ff3700c8
:101d10000404be00a8fc0700870678000004fd004c
:101d20008104fd00a4fc0700078366000678a30079
:101d3000030032000960a7000800be002c00370035
:101d40000d78a300020032000800be002800370012
:101d50000778a30026003a0001f0a10009f0a100d5
:101d60000668a30003003200f1ff2700f0ff2f00f8
:101d7000baff37000d68a300030032000800be0060
:101d80008c807000b5ff37000768a30007003a0099
:101d90000648a30003003200f1ff2700f0ff2f00e8
:101da000aeff37000d48a300030032006000b8000a
:101db0008c807000a9ff37000748a30004003200a0
:101dc00001f82700000020008c807000a3ff37007e
:101dd000740007000004fd008104fd000205780086
:101de000700007000802be008a01780059ff370022
:101df0000160a00012022000b240880097ff370067
:101e00000100e000120032000500e0001000320086
:101e1000889fbe008a9fbe008c9fbe000006eb001c
:101e200001f8a3000300320060001000e0801800f9
:101e30000cf0a00005f8a3000300320060021200bd
:101e4000e0821a000cf0a2008005eb0041ff370091
:101e50006000b80002000500810170002700320018
:101e60008002eb0001f8a3000300320060001000c4
:101e7000e080180015002000f40720000202420054
:101e800020003400f70320008703600006042000d0
:101e90000003630002082000000161004700de002b
:101ea000c909dd0000807100c708de000600e000ff
:101eb0000800320087037100060032001000b000f5
:101ec0000180b0000188a30002003200c108de00da
:101ed0000402e800f107b200f30f20000320e10044
:101ee00003003d004722dd00810072002900370019
:101ef00001f827000000eb00260037006000b80062
:101f000000000600680212007f20e1000200340099
:101f10006000b8001f0037006011b8007020e100b9
:101f20000400350080017800010078008000eb009b
:101f3000700252000400e00009003400f0031200b7
:101f40000719dd008419de000703dd0086817100ba
:101f50000400de00070bdd00060070008408de00d0
:101f6000f7ff2700838363008703710006002800c2
:101f700003036300070032000700e00003003a009b
:101f80006101600002817300020032001000b000a5
:101f90000180b0000500a6000000060001f0a000ce
:101fa000000006004f0ade004709de00f107b2001c
:101fb000f20fb2000b003200f207b1000170a00076
:101fc000c708dd00c901de00838070004700dd0026
:101fd0000400a6000000060060001000e080180069
:101fe00000000600810f700001003a0000000600aa
:101ff0008182cf000500e00010003e008082cf000b
:10200000ee8242007028e1000400390007003e0023
:10201000800078000000eb000e0037007083120093
:102020008600de000500dd000a00370070835200e4
:102030008600dd000000eb0006003700e28252005f
:102040008508dd00708312000603de0086807000c4
:102050000500dd007507b0000501ea000400a600d8
:102060000000060060001000e0801800000006007c
:020000040000fa
:102070000000fa0021e3a8000080fa00000006003a
:102080000000fa0021e3a9000080fa000000060029
:102090000000fa002023a8000080fa0000000600db
:1020a0000000fa002023a9000080fa0000000600ca
:1020b0000200fa00000f78001e007800e10f5000c7
:1020c0000a003200e10f500003003900e20f500017
:1020d0000c0032000f0037004119800000ff2f0074
:1020e00000806000401988000a0037004119800014
:1020f00000ff2f00008060000000a0004019880051
:102100000400370040198000f000b3004019880037
:10211000000000000080fa00000006000400fa0041
:102120001007980001188000010f78001e00780049
:102130000080fa00000006000400fa001007980072
:102140000019800000407800614060000080fb00c2
:1021500000f0a7000000ea000000ea004f00de00e7
:10216000004f78001e4078000080fa000000060052
:102170000000fa000600fc0011028000f141b200ec
:10218000110288000080fa00000006000200fa0038
:10219000000f78001e0078000000e00005003a0003
:1021a000cde2a900cdc2a900cda2a900cd82a9008f
:1021b000470037001e007800e10f500005003a008c
:1021c000cde2a800cdc2a900cda2a900cd82a90070
:1021d0003f0037001e007800e20f500005003a0073
:1021e000cde2a900cdc2a800cda2a900cd82a90050
:1021f000370037001e007800e30f500005003a005a
:10220000cde2a800cdc2a800cda2a900cd82a90030
:102210002f0037001e007800e40f500005003a0040
:10222000cde2a900cdc2a900cda2a800cd82a9000f
:10223000270037001e007800e50f500005003a0027
:10224000cde2a800cdc2a900cda2a800cd82a900f0
:102250001f0037001e007800e60f500005003a000e
:10226000cde2a900cdc2a800cda2a800cd82a900d0
:10227000170037001e007800e70f500005003a00f5
:10228000cde2a800cdc2a800cda2a800cd82a900b1
:102290000f0037001e007800e80f500005003a00dc
:1022a000cde2a900cdc2a900cda2a900cd82a8008f
:1022b000070037001e007800e90f500004003a00c4
:1022c000cde2a800cdc2a900cda2a900cd82a80070
:1022d0000080fa00000006000800fa0001408000bb
:1022e000803e200000017800110009008200d80023
:1022f000000f780001408000803e2000000178003f
:10230000110009008200d8008000fd000001780063
:10231000b04721000090b900c388de004f90de0076
:10232000008050001007980001408000b047210055
:102330000089b9004399de004f88de00000051009b
:10234000420620000281b90002007800008050009f
:10235000716626000181b900c298de004f80de0060
:102360000080500020079800004080007166260021
:102370000181b9004299de00cf80de00810051006a
:102380006a09b90082007800010050003007980007
:1023900060408000e10f500007003a00cd22a90004
:1023a000cd02a800cce2a800ccc2a8001e00780094
:1023b00076ff07001e00370060408000e20f5000eb
:1023c00007003a00cd22a800cd02a900cce2a80067
:1023d000ccc2a8001e0090006cff0700140037005c
:1023e00060408000e30f500007003a00cd22a800b3
:1023f000cd02a800cce2a900ccc2a8002e0090001b
:1024000062ff07000a00370060408000e40f5000c0
:1024100007003a00cd22a800cd02a800cce2a80017
:10242000ccc2a9003e00900058ff07000c28ef0026
:10243000604080000000e800604088000000eb0081
:102440000080fa00000006001000fa00881f7800e3
:1024500006c8bf000004a2000004e0003b003200f8
:10246000802d210000000100cf80de00edf8070084
:1024700002002400b33f240002f90700008fbe00d1
:10248000c030210000000100cf80de00e5f8070029
:1024900002002000d33f2400faf80700200798002c
:1024a000310798001e01be002e009000be00900073
:1024b0004afb0700400798005107980002ee2200ef
:1024c000532624004e009000de009000dbf9070048
:1024d000600798007107980002002000433b240029
:1024e0006e009000fe009000d8fc070010408800ad
:1024f000214088001040800021408000a8f807009b
:10250000000478004040800051408000a4f807009b
:102510000000780000005400004088000040800067
:102520000000e00009003d0000408000cf80de0098
:10253000bcf8070002002000433b2400daf8070043
:1025400097f80700000078000040880062ff07004d
:102550004f0478000080fa00000006000000fa0036
:102560005116800000022000008060000000e000a2
:102570000500320006c8bf000004a2000080fb0076
:102580000040780006e8b700501680007000600038
:102590000000e00004003200104080002140800074
:1025a00040408800514088000080fa00000006008a
:1025b0000200fa000000eb00bdfe0700acfe0700c1
:1025c000b3fe07000000eb00000f780001003700a9
:1025d0001e0fe800703e20009e007800808f5000a3
:1025e000fbff3400aefe0700000000000000eb001f
:1025f000d1fe07000004a2000004e000fbff3a0047
:102600000000eb00c5fe0700004088009cfe0700ac
:102610000080fa00000006000200fa00100020000e
:10262000a3fe070092fe070099fe07000000eb00e2
:10263000000f7800010037001e0fe800703e2000f8
:102640009e007800808f5000fbff340094fe07004e
:102650000000000010002000b7fe07000004a200e8
:102660000004e000fbff3a0010002000abfe070072
:102670000040880082fe07000080fa00000006008b
:102680000000fa002d01070066000700090007009e
:102690003f000700b6fe070075fe070078fe070042
:1026a0004022210032000700e02a2100e500070057
:1026b000ffff37000000fa000021ef00400020007b
:1026c000100888000001280020088800a040800031
:1026d0000000e00002003a00203b21002400070037
:1026e0008460a9009460a800808520008040eb00f1
:1026f000014878000080fa00000006000200fa009d
:10270000000f78009e007800110888008085200066
:102710008040eb00014878000080fa0000000600cd
:102720000000fa00100880000080fa000000060097
:102730000200fa00000f78009e007800010888006f
:10274000808520008040eb00014878000080fa007e
:10275000000006000000fa00000880000080fa0077
:10276000000006000000fa000080fa0000000600e9
:102770000200fa00000f78009460a9009e00780023
:10278000a14088009460a8000080fa0000000600c4
:102790000000fa00808520008040eb0001487800ae
:1027a0009460a80005e1a8000080fa00000006007f
:1027b0000000fa0005e1a9009460a9000080fa0079
:1027c000000006000200fa0080852000104f78000b
:1027d0001e4078000004e0000300320080852000e5
:1027e0008040eb00014878001e4078000080fa002d
:1027f000000006000000fa009085200010407800dc
:102800000080fb000080fa00000006000000fa00d3
:10281000908520008040eb00014878000080fa009d
:10282000000006000000fa000000280000198800df
:102830002223ef002423ef002823ef003023ef00b2
:1028400080422100050007000080fa000000060019
:102850000000fa000080fa00000006000200fa0002
:10286000000f78001e007800904088000080fa0079
:10287000000006000000fa00210480000000220091
:10288000008060000000e000060032009040800000
:102890000000e000020032009040800000000100d3
:1028a00085a0a9000080fa00000006000000fa00e0
:1028b0002023a8000080fa00000006000000fa00b3
:1028c0002023a9000080fa00000006000800fa009a
:1028d00030079800101980004200de006f40600051
:1028e0000080fb00200798000030200010079800af
:1028f0000000eb00000f78000b0037001e0078008e
:1029000000004000be009000008040009e0090004b
:1029100091007800010878001e0090000080e80017
:10292000100798001e0fe8009e0078002e0090000f
:10293000808f5000f1ff36001e0078000080fa0002
:04294000000006008d
:020000040000fa
:102944001808000020000000000000000e0800002d
:102954000200000002000000ffff00001008000059
:102964000200000000000000120800000200000045
:1029740000000000580800000200000000000000f1
:10298400140800000200000000000000000800001d
:102994000e000000000000003808000020000000c5
:1029a400020000003863ed003eda0f00493f5e008c
:1029b400987b3f00da0fc9003f693700ac316800eb
:1029c40021223300b40f140033682100a233000025
:1029d40016080000020000000000000000000000d3
:020000040000fa
:1029e4000000fa00c422ef00cc22ef0070012000a6
:1029f40000168800f0c32000401688006820ef000d
:102a04006a20ef00c622ef00ce22ef00c0e02100d2
:102a1400601988006020a8006360a800c0512100ec
:102a2400070007008660a9009660a8000080fa00ed
:102a3400000006000000fa000080fa000000060012
:102a44000200fa00000f78009660a9009e0078004a
:102a5400814088009660a8000080fa00000006000b
:102a64000200fa00000f78001e007800f4ff07004f
:102a74000080fa00000006000000fa0000002300b5
:102a8400203a88004827ef007027ef007227ef00f4
:102a94007427ef007200200080072000a1092000a5
:102aa4003374200080497800814978008249780095
:102ab4000001eb0060042000710520002374200055
:102ac4008049780081497800824978000080fa00c2
:102ad400000006000000fa0061058000f0ff2800f5
:102ae4000080600000c0a00060058800210580000f
:102af400f0ff28000080600000c0a00020058800ce
:102b04000080fa00000006000200fa00000f7800be
:102b14009e00780071408800ffff37000000fa0033
:102b24008081200080077800008320000001880055
:102b34000080fa00000006000000fa00a8ff070069
:102b4400cdff0700e3ff070035ff0700d8fe0700ad
:082b54000080fa0000000600f9
:020000040000fa
:020000040001f9
:0457f8009f7f00008f
:020000040000fa
:020000040001f9
:0457fc007f3f0000eb
:00000001FF
